{
  "_format": "hh-sol-artifact-1",
  "contractName": "OPOVPoPVerifier",
  "sourceName": "contracts/OPOVPoPVerifier.sol",
  "abi": [
    {
      "inputs": [
        {
          "internalType": "contract IWorldID",
          "name": "_worldId",
          "type": "address"
        },
        {
          "internalType": "string",
          "name": "_appId",
          "type": "string"
        },
        {
          "internalType": "string",
          "name": "_actionId",
          "type": "string"
        }
      ],
      "stateMutability": "nonpayable",
      "type": "constructor"
    },
    {
      "inputs": [],
      "name": "InvalidNullifier",
      "type": "error"
    },
    {
      "anonymous": false,
      "inputs": [
        {
          "indexed": false,
          "internalType": "bytes32",
          "name": "uid",
          "type": "bytes32"
        }
      ],
      "name": "AttestationCreated",
      "type": "event"
    },
    {
      "anonymous": false,
      "inputs": [
        {
          "indexed": true,
          "internalType": "address",
          "name": "attester",
          "type": "address"
        }
      ],
      "name": "AttesterSet",
      "type": "event"
    },
    {
      "anonymous": false,
      "inputs": [],
      "name": "ContractDeployed",
      "type": "event"
    },
    {
      "anonymous": false,
      "inputs": [
        {
          "indexed": true,
          "internalType": "address",
          "name": "previousOwner",
          "type": "address"
        },
        {
          "indexed": true,
          "internalType": "address",
          "name": "newOwner",
          "type": "address"
        }
      ],
      "name": "OwnershipTransferred",
      "type": "event"
    },
    {
      "anonymous": false,
      "inputs": [
        {
          "indexed": true,
          "internalType": "address",
          "name": "user",
          "type": "address"
        }
      ],
      "name": "VerificationSuccessful",
      "type": "event"
    },
    {
      "inputs": [],
      "name": "owner",
      "outputs": [
        {
          "internalType": "address",
          "name": "",
          "type": "address"
        }
      ],
      "stateMutability": "view",
      "type": "function"
    },
    {
      "inputs": [],
      "name": "renounceOwnership",
      "outputs": [],
      "stateMutability": "nonpayable",
      "type": "function"
    },
    {
      "inputs": [
        {
          "internalType": "contract IAttester",
          "name": "_attester",
          "type": "address"
        }
      ],
      "name": "setAttester",
      "outputs": [],
      "stateMutability": "nonpayable",
      "type": "function"
    },
    {
      "inputs": [
        {
          "internalType": "address",
          "name": "newOwner",
          "type": "address"
        }
      ],
      "name": "transferOwnership",
      "outputs": [],
      "stateMutability": "nonpayable",
      "type": "function"
    },
    {
      "inputs": [
        {
          "internalType": "uint256",
          "name": "_root",
          "type": "uint256"
        },
        {
          "internalType": "uint256",
          "name": "_nullifierHash",
          "type": "uint256"
        },
        {
          "internalType": "uint256[8]",
          "name": "_proof",
          "type": "uint256[8]"
        }
      ],
      "name": "verify",
      "outputs": [
        {
          "internalType": "bytes32",
          "name": "",
          "type": "bytes32"
        }
      ],
      "stateMutability": "nonpayable",
      "type": "function"
    }
  ],
  "bytecode": "0x60e06040523480156200001157600080fd5b5060405162000abe38038062000abe833981016040819052620000349162000264565b6200003f3362000110565b600180556001600160a01b038316608052604051620000a1906200008d906200006d908590602001620002ee565b6040516020818303038152906040526200016060201b6200046d1760201c565b826040516020016200006d9291906200030c565b60a052600080805260026020527fac33ff75c19e70fe83507db0d683fd3465c996598dc972688b7ace676c89077b805460ff1916600190811790915560c0526040517fdaf2a119a79dac8445fdc10627116c03f4b0ffb5cf1aee5223ac18a7453e631f9190a150505062000334565b600080546001600160a01b038381166001600160a01b0319831681178455604051919092169283917f8be0079c531659141344cd1fd0a4f28419497f9722a3daafe3b4186f6b6457e09190a35050565b6000600882604051602001620001779190620002ee565b60408051601f198184030181529190528051602090910120901c92915050565b634e487b7160e01b600052604160045260246000fd5b60005b83811015620001ca578181015183820152602001620001b0565b50506000910152565b600082601f830112620001e557600080fd5b81516001600160401b038082111562000202576200020262000197565b604051601f8301601f19908116603f011681019082821181831017156200022d576200022d62000197565b816040528381528660208588010111156200024757600080fd5b6200025a846020830160208901620001ad565b9695505050505050565b6000806000606084860312156200027a57600080fd5b83516001600160a01b03811681146200029257600080fd5b60208501519093506001600160401b0380821115620002b057600080fd5b620002be87838801620001d3565b93506040860151915080821115620002d557600080fd5b50620002e486828701620001d3565b9150509250925092565b6000825162000302818460208701620001ad565b9190910192915050565b8281526000825162000326816020850160208701620001ad565b919091016020019392505050565b60805160a05160c0516107536200036b600039600081816101770152610293015260006101b50152600061014c01526107536000f3fe608060405234801561001057600080fd5b50600436106100575760003560e01c8063412724b31461005c578063715018a6146100825780638da5cb5b1461008c5780639daf85ab146100a7578063f2fde38b146100ba575b600080fd5b61006f61006a3660046105a5565b6100cd565b6040519081526020015b60405180910390f35b61008a61038e565b005b6000546040516001600160a01b039091168152602001610079565b61008a6100b53660046105f9565b6103a2565b61008a6100c83660046105f9565b6103f4565b60006100d76104a2565b6003546001600160a01b03166101275760405162461bcd60e51b815260206004820152601060248201526f105d1d195cdd195c881b9bdd081cd95d60821b60448201526064015b60405180910390fd5b6040516bffffffffffffffffffffffff193360601b1660208201526001600160a01b037f00000000000000000000000000000000000000000000000000000000000000001690633bc778e39086907f0000000000000000000000000000000000000000000000000000000000000000906101b29060340160405160208183030381529060405261046d565b877f0000000000000000000000000000000000000000000000000000000000000000886040518763ffffffff1660e01b81526004016101f696959493929190610616565b60006040518083038186803b15801561020e57600080fd5b505afa158015610222573d6000803e3d6000fd5b505050600084815260026020526040808220805460ff19166001179055513392507fdcae470f5d7900ad0f27f39e8454d4ee863e57e7a9693c91ceb401700726aeb39190a26040805160c0810182526006608082019081526576657269667960d01b60a083015281523360208201527f000000000000000000000000000000000000000000000000000000000000000060ff16818301524267ffffffffffffffff16606082015260035491516336370ff160e01b815290916000916001600160a01b03909116906336370ff1906102fd908590600401610675565b6020604051808303816000875af115801561031c573d6000803e3d6000fd5b505050506040513d601f19601f8201168201806040525081019061034091906106e8565b90507fd290030f2b5b0ab9eb720eed81dc8820048476d821ce63d43c39adae452b91ba8160405161037391815260200190565b60405180910390a191505061038760018055565b9392505050565b6103966104fb565b6103a06000610555565b565b6103aa6104fb565b600380546001600160a01b0319166001600160a01b0383169081179091556040517f83ae38addfd65fe603eac2c4ea32b98b87684da75955ba744065b0ffd6ed672490600090a250565b6103fc6104fb565b6001600160a01b0381166104615760405162461bcd60e51b815260206004820152602660248201527f4f776e61626c653a206e6577206f776e657220697320746865207a65726f206160448201526564647265737360d01b606482015260840161011e565b61046a81610555565b50565b60006008826040516020016104829190610701565b60408051601f198184030181529190528051602090910120901c92915050565b6002600154036104f45760405162461bcd60e51b815260206004820152601f60248201527f5265656e7472616e637947756172643a207265656e7472616e742063616c6c00604482015260640161011e565b6002600155565b6000546001600160a01b031633146103a05760405162461bcd60e51b815260206004820181905260248201527f4f776e61626c653a2063616c6c6572206973206e6f7420746865206f776e6572604482015260640161011e565b600080546001600160a01b038381166001600160a01b0319831681178455604051919092169283917f8be0079c531659141344cd1fd0a4f28419497f9722a3daafe3b4186f6b6457e09190a35050565b60008060006101408085870312156105bc57600080fd5b84359350602085013592508581860111156105d657600080fd5b506040840190509250925092565b6001600160a01b038116811461046a57600080fd5b60006020828403121561060b57600080fd5b8135610387816105e4565b60006101a08201905087825260ff871660208301528560408301528460608301528360808301526101008360a0840137979650505050505050565b60005b8381101561066c578181015183820152602001610654565b50506000910152565b60208152600082516080602084015280518060a085015261069d8160c0860160208501610651565b60208501516001600160a01b031660408581019190915285015160ff166060808601919091529094015167ffffffffffffffff166080840152505060c0601f909201601f1916010190565b6000602082840312156106fa57600080fd5b5051919050565b60008251610713818460208701610651565b919091019291505056fea2646970667358221220508f85b28f3d0d274cce3f2bd6140b56bd9356201743bdd5617b912d40ef3c7464736f6c63430008110033",
  "linkReferences": {},
  "deployedLinkReferences": {}
}