{
  "_format": "hh-sol-artifact-1",
  "contractName": "OPOVAttester",
  "sourceName": "contracts/OPOVAttester.sol",
  "abi": [
    {
      "inputs": [
        {
          "internalType": "contract IEAS",
          "name": "_eas",
          "type": "address"
        },
        {
          "internalType": "bytes32",
          "name": "_schema",
          "type": "bytes32"
        }
      ],
      "stateMutability": "nonpayable",
      "type": "constructor"
    },
    {
      "anonymous": false,
      "inputs": [
        {
          "indexed": false,
          "internalType": "bytes32",
          "name": "uid",
          "type": "bytes32"
        },
        {
          "indexed": false,
          "internalType": "bytes32",
          "name": "schema",
          "type": "bytes32"
        },
        {
          "indexed": false,
          "internalType": "bytes",
          "name": "data",
          "type": "bytes"
        },
        {
          "indexed": false,
          "internalType": "address",
          "name": "attester",
          "type": "address"
        }
      ],
      "name": "AttestationCreated",
      "type": "event"
    },
    {
      "anonymous": false,
      "inputs": [
        {
          "indexed": false,
          "internalType": "uint16",
          "name": "srcChainId",
          "type": "uint16"
        },
        {
          "indexed": false,
          "internalType": "bytes",
          "name": "srcAddress",
          "type": "bytes"
        },
        {
          "indexed": false,
          "internalType": "uint64",
          "name": "nonce",
          "type": "uint64"
        },
        {
          "indexed": false,
          "internalType": "bytes",
          "name": "payload",
          "type": "bytes"
        }
      ],
      "name": "MessageReceived",
      "type": "event"
    },
    {
      "anonymous": false,
      "inputs": [
        {
          "indexed": true,
          "internalType": "address",
          "name": "previousOwner",
          "type": "address"
        },
        {
          "indexed": true,
          "internalType": "address",
          "name": "newOwner",
          "type": "address"
        }
      ],
      "name": "OwnershipTransferred",
      "type": "event"
    },
    {
      "anonymous": false,
      "inputs": [
        {
          "indexed": true,
          "internalType": "address",
          "name": "verifier",
          "type": "address"
        }
      ],
      "name": "VerifierSet",
      "type": "event"
    },
    {
      "inputs": [
        {
          "components": [
            {
              "internalType": "string",
              "name": "action",
              "type": "string"
            },
            {
              "internalType": "address",
              "name": "signal",
              "type": "address"
            },
            {
              "internalType": "uint8",
              "name": "credential_type",
              "type": "uint8"
            },
            {
              "internalType": "uint64",
              "name": "timestamp",
              "type": "uint64"
            }
          ],
          "internalType": "struct PoPSchema",
          "name": "data",
          "type": "tuple"
        }
      ],
      "name": "createAttestation",
      "outputs": [
        {
          "internalType": "bytes32",
          "name": "",
          "type": "bytes32"
        }
      ],
      "stateMutability": "nonpayable",
      "type": "function"
    },
    {
      "inputs": [
        {
          "internalType": "address",
          "name": "_address",
          "type": "address"
        }
      ],
      "name": "getAttestation",
      "outputs": [
        {
          "internalType": "bytes32",
          "name": "",
          "type": "bytes32"
        }
      ],
      "stateMutability": "view",
      "type": "function"
    },
    {
      "inputs": [
        {
          "internalType": "address",
          "name": "_address",
          "type": "address"
        }
      ],
      "name": "isVerified",
      "outputs": [
        {
          "internalType": "bool",
          "name": "",
          "type": "bool"
        }
      ],
      "stateMutability": "view",
      "type": "function"
    },
    {
      "inputs": [],
      "name": "owner",
      "outputs": [
        {
          "internalType": "address",
          "name": "",
          "type": "address"
        }
      ],
      "stateMutability": "view",
      "type": "function"
    },
    {
      "inputs": [],
      "name": "renounceOwnership",
      "outputs": [],
      "stateMutability": "nonpayable",
      "type": "function"
    },
    {
      "inputs": [
        {
          "internalType": "address",
          "name": "_verifier",
          "type": "address"
        }
      ],
      "name": "setVerifier",
      "outputs": [],
      "stateMutability": "nonpayable",
      "type": "function"
    },
    {
      "inputs": [
        {
          "internalType": "address",
          "name": "newOwner",
          "type": "address"
        }
      ],
      "name": "transferOwnership",
      "outputs": [],
      "stateMutability": "nonpayable",
      "type": "function"
    }
  ],
  "bytecode": "0x60a060405234801561001057600080fd5b50604051610be7380380610be783398101604081905261002f9161009e565b6100383361004e565b6001600160a01b039091166080526001556100d8565b600080546001600160a01b038381166001600160a01b0319831681178455604051919092169283917f8be0079c531659141344cd1fd0a4f28419497f9722a3daafe3b4186f6b6457e09190a35050565b600080604083850312156100b157600080fd5b82516001600160a01b03811681146100c857600080fd5b6020939093015192949293505050565b608051610aed6100fa6000396000818161026401526103f20152610aed6000f3fe608060405234801561001057600080fd5b506004361061007d5760003560e01c80638da5cb5b1161005b5780638da5cb5b146100c5578063b9209e33146100e0578063f2fde38b14610103578063f9b717971461011657600080fd5b806336370ff1146100825780635437988d146100a8578063715018a6146100bd575b600080fd5b6100956100903660046106ca565b61013f565b6040519081526020015b60405180910390f35b6100bb6100b63660046107aa565b61034a565b005b6100bb61039c565b6000546040516001600160a01b03909116815260200161009f565b6100f36100ee3660046107aa565b6103b0565b604051901515815260200161009f565b6100bb6101113660046107aa565b610494565b6100956101243660046107aa565b6001600160a01b031660009081526003602052604090205490565b6002546000906001600160a01b03166101925760405162461bcd60e51b815260206004820152601060248201526f15995c9a599a595c881b9bdd081cd95d60821b60448201526064015b60405180910390fd5b6002546001600160a01b031633146101e45760405162461bcd60e51b81526020600482015260156024820152742ab730baba3437b934bd32b2103b32b934b334b2b960591b6044820152606401610189565b6000826040516020016101f7919061081e565b60408051601f1981840301815282820182526001548352815160c0810183526020878101516001600160a01b0390811683526000838301819052838601819052606084018190526080840185905260a0840181905291860192909252925163f17325e760e01b81529194507f0000000000000000000000000000000000000000000000000000000000000000169063f17325e790610299908590600401610879565b6020604051808303816000875af11580156102b8573d6000803e3d6000fd5b505050506040513d601f19601f820116820180604052508101906102dc91906108fc565b602080870180516001600160a01b031660009081526003909252604091829020839055600154905191519293507f3ccd60ad7253c7d6299c6d98bdc749fb8e40e2439c60b4fc21ac4712893a88909261033a92859291889190610915565b60405180910390a1949350505050565b61035261050d565b600280546001600160a01b0319166001600160a01b0383169081179091556040517f480b37e3d134e44cb444c9703493c7db564c707cb8a18cecea165f340431da1f90600090a250565b6103a461050d565b6103ae6000610567565b565b6001600160a01b0381166000908152600360205260408120548082036103d95750600092915050565b6040516328c44a9960e21b8152600481018290526000907f00000000000000000000000000000000000000000000000000000000000000006001600160a01b03169063a3112a6490602401600060405180830381865afa158015610441573d6000803e3d6000fd5b505050506040513d6000823e601f3d908101601f1916820160405261046991908101906109c0565b60e08101519091506001600160a01b0316301461048a575060009392505050565b5060019392505050565b61049c61050d565b6001600160a01b0381166105015760405162461bcd60e51b815260206004820152602660248201527f4f776e61626c653a206e6577206f776e657220697320746865207a65726f206160448201526564647265737360d01b6064820152608401610189565b61050a81610567565b50565b6000546001600160a01b031633146103ae5760405162461bcd60e51b815260206004820181905260248201527f4f776e61626c653a2063616c6c6572206973206e6f7420746865206f776e65726044820152606401610189565b600080546001600160a01b038381166001600160a01b0319831681178455604051919092169283917f8be0079c531659141344cd1fd0a4f28419497f9722a3daafe3b4186f6b6457e09190a35050565b634e487b7160e01b600052604160045260246000fd5b6040516080810167ffffffffffffffff811182821017156105f0576105f06105b7565b60405290565b604051610140810167ffffffffffffffff811182821017156105f0576105f06105b7565b604051601f8201601f1916810167ffffffffffffffff81118282101715610643576106436105b7565b604052919050565b600067ffffffffffffffff821115610665576106656105b7565b50601f01601f191660200190565b6001600160a01b038116811461050a57600080fd5b803561069381610673565b919050565b803560ff8116811461069357600080fd5b67ffffffffffffffff8116811461050a57600080fd5b8035610693816106a9565b600060208083850312156106dd57600080fd5b823567ffffffffffffffff808211156106f557600080fd5b908401906080828703121561070957600080fd5b6107116105cd565b82358281111561072057600080fd5b83019150601f8201871361073357600080fd5b81356107466107418261064b565b61061a565b818152888683860101111561075a57600080fd5b81868501878301376000868383010152808352505061077a848401610688565b8482015261078a60408401610698565b604082015261079b606084016106bf565b60608201529695505050505050565b6000602082840312156107bc57600080fd5b81356107c781610673565b9392505050565b60005b838110156107e95781810151838201526020016107d1565b50506000910152565b6000815180845261080a8160208601602086016107ce565b601f01601f19169290920160200192915050565b60208152600082516080602084015261083a60a08401826107f2565b905060018060a01b03602085015116604084015260ff604085015116606084015267ffffffffffffffff60608501511660808401528091505092915050565b60208152815160208201526000602083015160408084015260018060a01b03815116606084015267ffffffffffffffff60208201511660808401526040810151151560a0840152606081015160c0840152608081015160c060e08501526108e46101208501826107f2565b905060a0820151610100850152809250505092915050565b60006020828403121561090e57600080fd5b5051919050565b84815283602082015260806040820152600061093460808301856107f2565b905060018060a01b038316606083015295945050505050565b8051610693816106a9565b805161069381610673565b8051801515811461069357600080fd5b600082601f83011261098457600080fd5b81516109926107418261064b565b8181528460208386010111156109a757600080fd5b6109b88260208301602087016107ce565b949350505050565b6000602082840312156109d257600080fd5b815167ffffffffffffffff808211156109ea57600080fd5b9083019061014082860312156109ff57600080fd5b610a076105f6565b8251815260208301516020820152610a216040840161094d565b6040820152610a326060840161094d565b6060820152610a436080840161094d565b608082015260a083015160a0820152610a5e60c08401610958565b60c0820152610a6f60e08401610958565b60e0820152610100610a82818501610963565b908201526101208381015183811115610a9a57600080fd5b610aa688828701610973565b91830191909152509594505050505056fea2646970667358221220025aac8af51a0af84455dc667fd27258ee603784c1b714f4d596f532adfdaa8964736f6c63430008110033",
  "linkReferences": {},
  "deployedLinkReferences": {}
}