{
  "_format": "hh-sol-artifact-1",
  "contractName": "OPOVPoPVerifier",
  "sourceName": "contracts/OPOVPoPVerifier.sol",
  "abi": [
    {
      "inputs": [
        {
          "internalType": "contract IWorldID",
          "name": "_worldId",
          "type": "address"
        },
        {
          "internalType": "string",
          "name": "_appId",
          "type": "string"
        },
        {
          "internalType": "string",
          "name": "_actionId",
          "type": "string"
        },
        {
          "internalType": "address",
          "name": "_lzEndpoint",
          "type": "address"
        },
        {
          "internalType": "uint16",
          "name": "_dstChainId",
          "type": "uint16"
        }
      ],
      "stateMutability": "nonpayable",
      "type": "constructor"
    },
    {
      "inputs": [],
      "name": "InvalidNullifier",
      "type": "error"
    },
    {
      "anonymous": false,
      "inputs": [
        {
          "indexed": true,
          "internalType": "address",
          "name": "attester",
          "type": "address"
        }
      ],
      "name": "AttesterSet",
      "type": "event"
    },
    {
      "anonymous": false,
      "inputs": [
        {
          "indexed": true,
          "internalType": "address",
          "name": "sender",
          "type": "address"
        }
      ],
      "name": "ContractCreated",
      "type": "event"
    },
    {
      "anonymous": false,
      "inputs": [
        {
          "indexed": false,
          "internalType": "uint16",
          "name": "_srcChainId",
          "type": "uint16"
        },
        {
          "indexed": false,
          "internalType": "bytes",
          "name": "_srcAddress",
          "type": "bytes"
        },
        {
          "indexed": false,
          "internalType": "uint64",
          "name": "_nonce",
          "type": "uint64"
        },
        {
          "indexed": false,
          "internalType": "bytes",
          "name": "_payload",
          "type": "bytes"
        },
        {
          "indexed": false,
          "internalType": "bytes",
          "name": "_reason",
          "type": "bytes"
        }
      ],
      "name": "MessageFailed",
      "type": "event"
    },
    {
      "anonymous": false,
      "inputs": [
        {
          "indexed": false,
          "internalType": "uint16",
          "name": "dstChainId",
          "type": "uint16"
        },
        {
          "indexed": false,
          "internalType": "address",
          "name": "attester",
          "type": "address"
        },
        {
          "indexed": false,
          "internalType": "bytes",
          "name": "payload",
          "type": "bytes"
        }
      ],
      "name": "MessageSent",
      "type": "event"
    },
    {
      "anonymous": false,
      "inputs": [
        {
          "indexed": true,
          "internalType": "address",
          "name": "previousOwner",
          "type": "address"
        },
        {
          "indexed": true,
          "internalType": "address",
          "name": "newOwner",
          "type": "address"
        }
      ],
      "name": "OwnershipTransferred",
      "type": "event"
    },
    {
      "anonymous": false,
      "inputs": [
        {
          "indexed": false,
          "internalType": "uint16",
          "name": "_srcChainId",
          "type": "uint16"
        },
        {
          "indexed": false,
          "internalType": "bytes",
          "name": "_srcAddress",
          "type": "bytes"
        },
        {
          "indexed": false,
          "internalType": "uint64",
          "name": "_nonce",
          "type": "uint64"
        },
        {
          "indexed": false,
          "internalType": "bytes32",
          "name": "_payloadHash",
          "type": "bytes32"
        }
      ],
      "name": "RetryMessageSuccess",
      "type": "event"
    },
    {
      "anonymous": false,
      "inputs": [
        {
          "indexed": false,
          "internalType": "uint16",
          "name": "_dstChainId",
          "type": "uint16"
        },
        {
          "indexed": false,
          "internalType": "uint16",
          "name": "_type",
          "type": "uint16"
        },
        {
          "indexed": false,
          "internalType": "uint256",
          "name": "_minDstGas",
          "type": "uint256"
        }
      ],
      "name": "SetMinDstGas",
      "type": "event"
    },
    {
      "anonymous": false,
      "inputs": [
        {
          "indexed": false,
          "internalType": "address",
          "name": "precrime",
          "type": "address"
        }
      ],
      "name": "SetPrecrime",
      "type": "event"
    },
    {
      "anonymous": false,
      "inputs": [
        {
          "indexed": false,
          "internalType": "uint16",
          "name": "_remoteChainId",
          "type": "uint16"
        },
        {
          "indexed": false,
          "internalType": "bytes",
          "name": "_path",
          "type": "bytes"
        }
      ],
      "name": "SetTrustedRemote",
      "type": "event"
    },
    {
      "anonymous": false,
      "inputs": [
        {
          "indexed": false,
          "internalType": "uint16",
          "name": "_remoteChainId",
          "type": "uint16"
        },
        {
          "indexed": false,
          "internalType": "bytes",
          "name": "_remoteAddress",
          "type": "bytes"
        }
      ],
      "name": "SetTrustedRemoteAddress",
      "type": "event"
    },
    {
      "anonymous": false,
      "inputs": [
        {
          "indexed": true,
          "internalType": "address",
          "name": "user",
          "type": "address"
        },
        {
          "indexed": false,
          "internalType": "uint256",
          "name": "root",
          "type": "uint256"
        },
        {
          "indexed": false,
          "internalType": "uint256",
          "name": "nullifierHash",
          "type": "uint256"
        }
      ],
      "name": "VerificationSuccessful",
      "type": "event"
    },
    {
      "inputs": [],
      "name": "DEFAULT_PAYLOAD_SIZE_LIMIT",
      "outputs": [
        {
          "internalType": "uint256",
          "name": "",
          "type": "uint256"
        }
      ],
      "stateMutability": "view",
      "type": "function"
    },
    {
      "inputs": [
        {
          "internalType": "bool",
          "name": "_useZro",
          "type": "bool"
        },
        {
          "internalType": "bytes",
          "name": "_adapterParams",
          "type": "bytes"
        },
        {
          "internalType": "bytes",
          "name": "_payload",
          "type": "bytes"
        }
      ],
      "name": "estimateFee",
      "outputs": [
        {
          "internalType": "uint256",
          "name": "nativeFee",
          "type": "uint256"
        },
        {
          "internalType": "uint256",
          "name": "zroFee",
          "type": "uint256"
        }
      ],
      "stateMutability": "view",
      "type": "function"
    },
    {
      "inputs": [
        {
          "internalType": "uint16",
          "name": "",
          "type": "uint16"
        },
        {
          "internalType": "bytes",
          "name": "",
          "type": "bytes"
        },
        {
          "internalType": "uint64",
          "name": "",
          "type": "uint64"
        }
      ],
      "name": "failedMessages",
      "outputs": [
        {
          "internalType": "bytes32",
          "name": "",
          "type": "bytes32"
        }
      ],
      "stateMutability": "view",
      "type": "function"
    },
    {
      "inputs": [
        {
          "internalType": "uint16",
          "name": "_srcChainId",
          "type": "uint16"
        },
        {
          "internalType": "bytes",
          "name": "_srcAddress",
          "type": "bytes"
        }
      ],
      "name": "forceResumeReceive",
      "outputs": [],
      "stateMutability": "nonpayable",
      "type": "function"
    },
    {
      "inputs": [
        {
          "internalType": "uint16",
          "name": "_version",
          "type": "uint16"
        },
        {
          "internalType": "uint16",
          "name": "_chainId",
          "type": "uint16"
        },
        {
          "internalType": "address",
          "name": "",
          "type": "address"
        },
        {
          "internalType": "uint256",
          "name": "_configType",
          "type": "uint256"
        }
      ],
      "name": "getConfig",
      "outputs": [
        {
          "internalType": "bytes",
          "name": "",
          "type": "bytes"
        }
      ],
      "stateMutability": "view",
      "type": "function"
    },
    {
      "inputs": [
        {
          "internalType": "uint16",
          "name": "_remoteChainId",
          "type": "uint16"
        }
      ],
      "name": "getTrustedRemoteAddress",
      "outputs": [
        {
          "internalType": "bytes",
          "name": "",
          "type": "bytes"
        }
      ],
      "stateMutability": "view",
      "type": "function"
    },
    {
      "inputs": [
        {
          "internalType": "uint16",
          "name": "_srcChainId",
          "type": "uint16"
        },
        {
          "internalType": "bytes",
          "name": "_srcAddress",
          "type": "bytes"
        }
      ],
      "name": "isTrustedRemote",
      "outputs": [
        {
          "internalType": "bool",
          "name": "",
          "type": "bool"
        }
      ],
      "stateMutability": "view",
      "type": "function"
    },
    {
      "inputs": [],
      "name": "lzEndpoint",
      "outputs": [
        {
          "internalType": "contract ILayerZeroEndpoint",
          "name": "",
          "type": "address"
        }
      ],
      "stateMutability": "view",
      "type": "function"
    },
    {
      "inputs": [
        {
          "internalType": "uint16",
          "name": "_srcChainId",
          "type": "uint16"
        },
        {
          "internalType": "bytes",
          "name": "_srcAddress",
          "type": "bytes"
        },
        {
          "internalType": "uint64",
          "name": "_nonce",
          "type": "uint64"
        },
        {
          "internalType": "bytes",
          "name": "_payload",
          "type": "bytes"
        }
      ],
      "name": "lzReceive",
      "outputs": [],
      "stateMutability": "nonpayable",
      "type": "function"
    },
    {
      "inputs": [
        {
          "internalType": "uint16",
          "name": "",
          "type": "uint16"
        },
        {
          "internalType": "uint16",
          "name": "",
          "type": "uint16"
        }
      ],
      "name": "minDstGasLookup",
      "outputs": [
        {
          "internalType": "uint256",
          "name": "",
          "type": "uint256"
        }
      ],
      "stateMutability": "view",
      "type": "function"
    },
    {
      "inputs": [
        {
          "internalType": "uint16",
          "name": "_srcChainId",
          "type": "uint16"
        },
        {
          "internalType": "bytes",
          "name": "_srcAddress",
          "type": "bytes"
        },
        {
          "internalType": "uint64",
          "name": "_nonce",
          "type": "uint64"
        },
        {
          "internalType": "bytes",
          "name": "_payload",
          "type": "bytes"
        }
      ],
      "name": "nonblockingLzReceive",
      "outputs": [],
      "stateMutability": "nonpayable",
      "type": "function"
    },
    {
      "inputs": [],
      "name": "owner",
      "outputs": [
        {
          "internalType": "address",
          "name": "",
          "type": "address"
        }
      ],
      "stateMutability": "view",
      "type": "function"
    },
    {
      "inputs": [
        {
          "internalType": "uint16",
          "name": "",
          "type": "uint16"
        }
      ],
      "name": "payloadSizeLimitLookup",
      "outputs": [
        {
          "internalType": "uint256",
          "name": "",
          "type": "uint256"
        }
      ],
      "stateMutability": "view",
      "type": "function"
    },
    {
      "inputs": [],
      "name": "precrime",
      "outputs": [
        {
          "internalType": "address",
          "name": "",
          "type": "address"
        }
      ],
      "stateMutability": "view",
      "type": "function"
    },
    {
      "inputs": [],
      "name": "renounceOwnership",
      "outputs": [],
      "stateMutability": "nonpayable",
      "type": "function"
    },
    {
      "inputs": [
        {
          "internalType": "uint16",
          "name": "_srcChainId",
          "type": "uint16"
        },
        {
          "internalType": "bytes",
          "name": "_srcAddress",
          "type": "bytes"
        },
        {
          "internalType": "uint64",
          "name": "_nonce",
          "type": "uint64"
        },
        {
          "internalType": "bytes",
          "name": "_payload",
          "type": "bytes"
        }
      ],
      "name": "retryMessage",
      "outputs": [],
      "stateMutability": "payable",
      "type": "function"
    },
    {
      "inputs": [
        {
          "internalType": "address",
          "name": "_attester",
          "type": "address"
        }
      ],
      "name": "setAttester",
      "outputs": [],
      "stateMutability": "nonpayable",
      "type": "function"
    },
    {
      "inputs": [
        {
          "internalType": "uint16",
          "name": "_version",
          "type": "uint16"
        },
        {
          "internalType": "uint16",
          "name": "_chainId",
          "type": "uint16"
        },
        {
          "internalType": "uint256",
          "name": "_configType",
          "type": "uint256"
        },
        {
          "internalType": "bytes",
          "name": "_config",
          "type": "bytes"
        }
      ],
      "name": "setConfig",
      "outputs": [],
      "stateMutability": "nonpayable",
      "type": "function"
    },
    {
      "inputs": [
        {
          "internalType": "uint16",
          "name": "_dstChainId",
          "type": "uint16"
        },
        {
          "internalType": "uint16",
          "name": "_packetType",
          "type": "uint16"
        },
        {
          "internalType": "uint256",
          "name": "_minGas",
          "type": "uint256"
        }
      ],
      "name": "setMinDstGas",
      "outputs": [],
      "stateMutability": "nonpayable",
      "type": "function"
    },
    {
      "inputs": [
        {
          "internalType": "uint16",
          "name": "_dstChainId",
          "type": "uint16"
        },
        {
          "internalType": "uint256",
          "name": "_size",
          "type": "uint256"
        }
      ],
      "name": "setPayloadSizeLimit",
      "outputs": [],
      "stateMutability": "nonpayable",
      "type": "function"
    },
    {
      "inputs": [
        {
          "internalType": "address",
          "name": "_precrime",
          "type": "address"
        }
      ],
      "name": "setPrecrime",
      "outputs": [],
      "stateMutability": "nonpayable",
      "type": "function"
    },
    {
      "inputs": [
        {
          "internalType": "uint16",
          "name": "_version",
          "type": "uint16"
        }
      ],
      "name": "setReceiveVersion",
      "outputs": [],
      "stateMutability": "nonpayable",
      "type": "function"
    },
    {
      "inputs": [
        {
          "internalType": "uint16",
          "name": "_version",
          "type": "uint16"
        }
      ],
      "name": "setSendVersion",
      "outputs": [],
      "stateMutability": "nonpayable",
      "type": "function"
    },
    {
      "inputs": [
        {
          "internalType": "address",
          "name": "newOwner",
          "type": "address"
        }
      ],
      "name": "transferOwnership",
      "outputs": [],
      "stateMutability": "nonpayable",
      "type": "function"
    },
    {
      "inputs": [
        {
          "internalType": "uint16",
          "name": "",
          "type": "uint16"
        }
      ],
      "name": "trustedRemoteLookup",
      "outputs": [
        {
          "internalType": "bytes",
          "name": "",
          "type": "bytes"
        }
      ],
      "stateMutability": "view",
      "type": "function"
    },
    {
      "inputs": [
        {
          "internalType": "address",
          "name": "_signal",
          "type": "address"
        }
      ],
      "name": "verify",
      "outputs": [],
      "stateMutability": "nonpayable",
      "type": "function"
    },
    {
      "inputs": [
        {
          "internalType": "address",
          "name": "_signal",
          "type": "address"
        },
        {
          "internalType": "uint256",
          "name": "_root",
          "type": "uint256"
        },
        {
          "internalType": "uint256",
          "name": "_nullifierHash",
          "type": "uint256"
        },
        {
          "internalType": "uint256[8]",
          "name": "_proof",
          "type": "uint256[8]"
        }
      ],
      "name": "verifyAndExecute",
      "outputs": [],
      "stateMutability": "nonpayable",
      "type": "function"
    }
  ],
  "bytecode": "0x6101006040523480156200001257600080fd5b5060405162002c2338038062002c238339810160408190526200003591620002a4565b8180620000423362000137565b6001600160a01b031660805250600160065560405133907fcf78cf0d6f3d8371e1075c69c492ab4ec5d8cf23a1a239b6a51a1d00be7ca31290600090a26001600160a01b03851660a0526008805461ffff191661ffff8316179055604051620000ee90620000da90620000ba90879060200162000356565b6040516020818303038152906040526200018760201b620016b41760201c565b84604051602001620000ba92919062000374565b60c05250506000805250506007602052507f6d5257204ebe7d88fd91ae87941cb2dd9d8062b64ae5a2bd2d28ec40b9fbf6df805460ff1916600190811790915560e0526200039c565b600080546001600160a01b038381166001600160a01b0319831681178455604051919092169283917f8be0079c531659141344cd1fd0a4f28419497f9722a3daafe3b4186f6b6457e09190a35050565b60006008826040516020016200019e919062000356565b60408051601f198184030181529190528051602090910120901c92915050565b6001600160a01b0381168114620001d457600080fd5b50565b634e487b7160e01b600052604160045260246000fd5b60005b838110156200020a578181015183820152602001620001f0565b50506000910152565b600082601f8301126200022557600080fd5b81516001600160401b0380821115620002425762000242620001d7565b604051601f8301601f19908116603f011681019082821181831017156200026d576200026d620001d7565b816040528381528660208588010111156200028757600080fd5b6200029a846020830160208901620001ed565b9695505050505050565b600080600080600060a08688031215620002bd57600080fd5b8551620002ca81620001be565b60208701519095506001600160401b0380821115620002e857600080fd5b620002f689838a0162000213565b955060408801519150808211156200030d57600080fd5b506200031c8882890162000213565b93505060608601516200032f81620001be565b608087015190925061ffff811681146200034857600080fd5b809150509295509295909350565b600082516200036a818460208701620001ed565b9190910192915050565b828152600082516200038e816020850160208701620001ed565b919091016020019392505050565b60805160a05160c05160e0516128076200041c60003960008181610b0e0152818161133801526114ad0152600061139a01526000611308015260008181610494015281816105a2015281816107f101528181610899015281816108ef01528181610a6c01528181610f900152818161163401526118e501526128076000f3fe60806040526004361061019b5760003560e01c80638cfd8f5c116100ec578063c44618341161008a578063df2a5b3b11610064578063df2a5b3b1461051f578063e9b705531461053f578063f2fde38b1461055f578063f5ecbdbc1461057f57600080fd5b8063c4461834146104d6578063cbed8b9c146104ec578063d1deba1f1461050c57600080fd5b80639daf85ab116100c65780639daf85ab146104425780639f38369a14610462578063b353aaa714610482578063baf3292d146104b657600080fd5b80638cfd8f5c146103b85780638da5cb5b146103f0578063950c8a741461042257600080fd5b80633f1f4fa41161015957806363a9c3d71161013357806363a9c3d71461033657806366ad5c8a14610356578063715018a6146103765780637533d7881461038b57600080fd5b80633f1f4fa41461028c57806342d65a8d146102c75780635b8c41e6146102e757600080fd5b80621d3567146101a057806307e0db17146101c25780630df37483146101e257806310ddb137146102025780631f8905a1146102225780633d8b38f61461025c575b600080fd5b3480156101ac57600080fd5b506101c06101bb366004611da6565b61059f565b005b3480156101ce57600080fd5b506101c06101dd366004611e39565b6107d0565b3480156101ee57600080fd5b506101c06101fd366004611e54565b610859565b34801561020e57600080fd5b506101c061021d366004611e39565b610878565b34801561022e57600080fd5b5061024261023d366004611e7e565b6108d0565b604080519283526020830191909152015b60405180910390f35b34801561026857600080fd5b5061027c610277366004611f05565b610981565b6040519015158152602001610253565b34801561029857600080fd5b506102b96102a7366004611e39565b60036020526000908152604090205481565b604051908152602001610253565b3480156102d357600080fd5b506101c06102e2366004611f05565b610a4d565b3480156102f357600080fd5b506102b9610302366004611fc4565b6005602090815260009384526040808520845180860184018051928152908401958401959095209452929052825290205481565b34801561034257600080fd5b506101c061035136600461207b565b610ad3565b34801561036257600080fd5b506101c0610371366004611da6565b610bde565b34801561038257600080fd5b506101c0610cba565b34801561039757600080fd5b506103ab6103a6366004611e39565b610cce565b60405161025391906120e6565b3480156103c457600080fd5b506102b96103d33660046120f9565b600260209081526000928352604080842090915290825290205481565b3480156103fc57600080fd5b506000546001600160a01b03165b6040516001600160a01b039091168152602001610253565b34801561042e57600080fd5b5060045461040a906001600160a01b031681565b34801561044e57600080fd5b506101c061045d36600461207b565b610d68565b34801561046e57600080fd5b506103ab61047d366004611e39565b610dff565b34801561048e57600080fd5b5061040a7f000000000000000000000000000000000000000000000000000000000000000081565b3480156104c257600080fd5b506101c06104d136600461207b565b610f15565b3480156104e257600080fd5b506102b961271081565b3480156104f857600080fd5b506101c061050736600461212c565b610f71565b6101c061051a366004611da6565b611006565b34801561052b57600080fd5b506101c061053a366004612189565b61121c565b34801561054b57600080fd5b506101c061055a3660046121c5565b6112ce565b34801561056b57600080fd5b506101c061057a36600461207b565b61158a565b34801561058b57600080fd5b506103ab61059a366004612213565b611603565b337f00000000000000000000000000000000000000000000000000000000000000006001600160a01b03161461061c5760405162461bcd60e51b815260206004820152601e60248201527f4c7a4170703a20696e76616c696420656e64706f696e742063616c6c6572000060448201526064015b60405180910390fd5b61ffff86166000908152600160205260408120805461063a9061225e565b80601f01602080910402602001604051908101604052809291908181526020018280546106669061225e565b80156106b35780601f10610688576101008083540402835291602001916106b3565b820191906000526020600020905b81548152906001019060200180831161069657829003601f168201915b505050505090508051868690501480156106ce575060008151115b80156106f65750805160208201206040516106ec9088908890612298565b6040518091039020145b6107515760405162461bcd60e51b815260206004820152602660248201527f4c7a4170703a20696e76616c696420736f757263652073656e64696e6720636f6044820152651b9d1c9858dd60d21b6064820152608401610613565b6107c78787878080601f01602080910402602001604051908101604052809392919081815260200183838082843760009201919091525050604080516020601f8a018190048102820181019092528881528a9350915088908890819084018382808284376000920191909152506116e992505050565b50505050505050565b6107d8611762565b6040516307e0db1760e01b815261ffff821660048201527f00000000000000000000000000000000000000000000000000000000000000006001600160a01b0316906307e0db17906024015b600060405180830381600087803b15801561083e57600080fd5b505af1158015610852573d6000803e3d6000fd5b5050505050565b610861611762565b61ffff909116600090815260036020526040902055565b610880611762565b6040516310ddb13760e01b815261ffff821660048201527f00000000000000000000000000000000000000000000000000000000000000006001600160a01b0316906310ddb13790602401610824565b60085460405163040a7bb160e41b815260009182916001600160a01b037f000000000000000000000000000000000000000000000000000000000000000016916340a7bb10916109339161ffff16903090899089908e908e908e906004016122d1565b6040805180830381865afa15801561094f573d6000803e3d6000fd5b505050506040513d601f19601f820116820180604052508101906109739190612329565b915091509550959350505050565b61ffff8316600090815260016020526040812080548291906109a29061225e565b80601f01602080910402602001604051908101604052809291908181526020018280546109ce9061225e565b8015610a1b5780601f106109f057610100808354040283529160200191610a1b565b820191906000526020600020905b8154815290600101906020018083116109fe57829003601f168201915b505050505090508383604051610a32929190612298565b60405180910390208180519060200120149150509392505050565b610a55611762565b6040516342d65a8d60e01b81526001600160a01b037f000000000000000000000000000000000000000000000000000000000000000016906342d65a8d90610aa59086908690869060040161234d565b600060405180830381600087803b158015610abf57600080fd5b505af11580156107c7573d6000803e3d6000fd5b6040805160c0810182526006608082019081526576657269667960d01b60a083015281526001600160a01b03831660208083019190915260ff7f000000000000000000000000000000000000000000000000000000000000000016828401526001600160401b034216606083015291519091600091610b549184910161236b565b60408051601f19818403018152600854602084019092526000808452909350610b889261ffff9092169184913391816117bc565b6008546040517fae5f3571223b64a32b18c3fbc25fe0103eea01999b47abab5a41ecdee44c798c91610bd19161ffff8216916201000090046001600160a01b03169085906123c5565b60405180910390a1505050565b333014610c3c5760405162461bcd60e51b815260206004820152602660248201527f4e6f6e626c6f636b696e674c7a4170703a2063616c6c6572206d7573742062656044820152650204c7a4170760d41b6064820152608401610613565b610cb28686868080601f01602080910402602001604051908101604052809392919081815260200183838082843760009201919091525050604080516020601f89018190048102820181019092528781528993509150879087908190840183828082843760009201919091525061158492505050565b505050505050565b610cc2611762565b610ccc6000611961565b565b60016020526000908152604090208054610ce79061225e565b80601f0160208091040260200160405190810160405280929190818152602001828054610d139061225e565b8015610d605780601f10610d3557610100808354040283529160200191610d60565b820191906000526020600020905b815481529060010190602001808311610d4357829003601f168201915b505050505081565b610d70611762565b600880546001600160a01b03831662010000810262010000600160b01b031983168117909355604080516020810192909252610dc89361ffff90811693169290921791016040516020818303038152906040526119b1565b6040516001600160a01b038216907f83ae38addfd65fe603eac2c4ea32b98b87684da75955ba744065b0ffd6ed672490600090a250565b61ffff8116600090815260016020526040812080546060929190610e229061225e565b80601f0160208091040260200160405190810160405280929190818152602001828054610e4e9061225e565b8015610e9b5780601f10610e7057610100808354040283529160200191610e9b565b820191906000526020600020905b815481529060010190602001808311610e7e57829003601f168201915b505050505090508051600003610ef35760405162461bcd60e51b815260206004820152601d60248201527f4c7a4170703a206e6f20747275737465642070617468207265636f72640000006044820152606401610613565b610f0e600060148351610f069190612409565b839190611a2d565b9392505050565b610f1d611762565b600480546001600160a01b0319166001600160a01b0383169081179091556040519081527f5db758e995a17ec1ad84bdef7e8c3293a0bd6179bcce400dff5d4c3d87db726b9060200160405180910390a150565b610f79611762565b6040516332fb62e760e21b81526001600160a01b037f0000000000000000000000000000000000000000000000000000000000000000169063cbed8b9c90610fcd9088908890889088908890600401612422565b600060405180830381600087803b158015610fe757600080fd5b505af1158015610ffb573d6000803e3d6000fd5b505050505050505050565b61ffff861660009081526005602052604080822090516110299088908890612298565b90815260408051602092819003830190206001600160401b038716600090815292529020549050806110a95760405162461bcd60e51b815260206004820152602360248201527f4e6f6e626c6f636b696e674c7a4170703a206e6f2073746f726564206d65737360448201526261676560e81b6064820152608401610613565b8083836040516110ba929190612298565b6040518091039020146111195760405162461bcd60e51b815260206004820152602160248201527f4e6f6e626c6f636b696e674c7a4170703a20696e76616c6964207061796c6f616044820152601960fa1b6064820152608401610613565b61ffff8716600090815260056020526040808220905161113c9089908990612298565b90815260408051602092819003830181206001600160401b038916600090815290845282902093909355601f880182900482028301820190528682526111d4918991899089908190840183828082843760009201919091525050604080516020601f8a018190048102820181019092528881528a93509150889088908190840183828082843760009201919091525061158492505050565b7fc264d91f3adc5588250e1551f547752ca0cfa8f6b530d243b9f9f4cab10ea8e5878787878560405161120b95949392919061245b565b60405180910390a150505050505050565b611224611762565b6000811161126c5760405162461bcd60e51b81526020600482015260156024820152744c7a4170703a20696e76616c6964206d696e47617360581b6044820152606401610613565b61ffff83811660008181526002602090815260408083209487168084529482529182902085905581519283528201929092529081018290527f9d5c7c0b934da8fefa9c7760c98383778a12dfbfc0c3b3106518f43fb9508ac090606001610bd1565b6112d6611b3a565b60008281526007602052604090205460ff161561130657604051632ec8265960e11b815260040160405180910390fd5b7f00000000000000000000000000000000000000000000000000000000000000006001600160a01b0316633bc778e3847f000000000000000000000000000000000000000000000000000000000000000061139788604051602001611383919060609190911b6bffffffffffffffffffffffff1916815260140190565b6040516020818303038152906040526116b4565b867f0000000000000000000000000000000000000000000000000000000000000000876040518763ffffffff1660e01b81526004016113db96959493929190612496565b60006040518083038186803b1580156113f357600080fd5b505afa158015611407573d6000803e3d6000fd5b50505060008381526007602052604090819020805460ff19166001179055516001600160a01b03861691507f8f080465b156e70521fa61d610282a53a7e86b879547c306790990d8ad4ea1fe9061146a9086908690918252602082015260400190565b60405180910390a26040805160c0810182526006608082019081526576657269667960d01b60a083015281526001600160a01b03861660208083019190915260ff7f000000000000000000000000000000000000000000000000000000000000000016828401526001600160401b0342166060830152915190916000916114f39184910161236b565b60408051601f198184030181526008546020840190925260008084529093506115279261ffff9092169184913391816117bc565b6008546040517fae5f3571223b64a32b18c3fbc25fe0103eea01999b47abab5a41ecdee44c798c916115709161ffff8216916201000090046001600160a01b03169085906123c5565b60405180910390a150506115846001600655565b50505050565b611592611762565b6001600160a01b0381166115f75760405162461bcd60e51b815260206004820152602660248201527f4f776e61626c653a206e6577206f776e657220697320746865207a65726f206160448201526564647265737360d01b6064820152608401610613565b61160081611961565b50565b604051633d7b2f6f60e21b815261ffff808616600483015284166024820152306044820152606481018290526060907f00000000000000000000000000000000000000000000000000000000000000006001600160a01b03169063f5ecbdbc90608401600060405180830381865afa158015611683573d6000803e3d6000fd5b505050506040513d6000823e601f3d908101601f191682016040526116ab91908101906124d1565b95945050505050565b60006008826040516020016116c9919061253e565b60408051601f198184030181529190528051602090910120901c92915050565b60008061174c5a60966366ad5c8a60e01b89898989604051602401611711949392919061255a565b60408051601f198184030181529190526020810180516001600160e01b03166001600160e01b03199093169290921790915230929190611b93565b9150915081610cb257610cb28686868685611c1d565b6000546001600160a01b03163314610ccc5760405162461bcd60e51b815260206004820181905260248201527f4f776e61626c653a2063616c6c6572206973206e6f7420746865206f776e65726044820152606401610613565b61ffff8616600090815260016020526040812080546117da9061225e565b80601f01602080910402602001604051908101604052809291908181526020018280546118069061225e565b80156118535780601f1061182857610100808354040283529160200191611853565b820191906000526020600020905b81548152906001019060200180831161183657829003601f168201915b5050505050905080516000036118c45760405162461bcd60e51b815260206004820152603060248201527f4c7a4170703a2064657374696e6174696f6e20636861696e206973206e6f742060448201526f61207472757374656420736f7572636560801b6064820152608401610613565b6118cf878751611cba565b60405162c5803160e81b81526001600160a01b037f0000000000000000000000000000000000000000000000000000000000000000169063c5803100908490611926908b9086908c908c908c908c90600401612598565b6000604051808303818588803b15801561193f57600080fd5b505af1158015611953573d6000803e3d6000fd5b505050505050505050505050565b600080546001600160a01b038381166001600160a01b0319831681178455604051919092169283917f8be0079c531659141344cd1fd0a4f28419497f9722a3daafe3b4186f6b6457e09190a35050565b80306040516020016119c49291906125ff565b60408051601f1981840301815291815261ffff84166000908152600160205220906119ef908261267c565b507f8c0400cfe2d1199b1a725c78960bcc2a344d869b80590d0f2bd005db15a572ce8282604051611a2192919061273b565b60405180910390a15050565b606081611a3b81601f612760565b1015611a7a5760405162461bcd60e51b815260206004820152600e60248201526d736c6963655f6f766572666c6f7760901b6044820152606401610613565b611a848284612760565b84511015611ac85760405162461bcd60e51b8152602060048201526011602482015270736c6963655f6f75744f66426f756e647360781b6044820152606401610613565b606082158015611ae75760405191506000825260208201604052611b31565b6040519150601f8416801560200281840101858101878315602002848b0101015b81831015611b20578051835260209283019201611b08565b5050858452601f01601f1916604052505b50949350505050565b600260065403611b8c5760405162461bcd60e51b815260206004820152601f60248201527f5265656e7472616e637947756172643a207265656e7472616e742063616c6c006044820152606401610613565b6002600655565b6000606060008060008661ffff166001600160401b03811115611bb857611bb8611f57565b6040519080825280601f01601f191660200182016040528015611be2576020820181803683370190505b50905060008087516020890160008d8df191503d925086831115611c04578692505b828152826000602083013e909890975095505050505050565b8180519060200120600560008761ffff1661ffff16815260200190815260200160002085604051611c4e919061253e565b9081526040805191829003602090810183206001600160401b0388166000908152915220919091557fe183f33de2837795525b4792ca4cd60535bd77c53b7e7030060bfcf5734d6b0c90611cab9087908790879087908790612773565b60405180910390a15050505050565b61ffff821660009081526003602052604081205490819003611cdb57506127105b80821115611d2b5760405162461bcd60e51b815260206004820181905260248201527f4c7a4170703a207061796c6f61642073697a6520697320746f6f206c617267656044820152606401610613565b505050565b803561ffff81168114611d4257600080fd5b919050565b60008083601f840112611d5957600080fd5b5081356001600160401b03811115611d7057600080fd5b602083019150836020828501011115611d8857600080fd5b9250929050565b80356001600160401b0381168114611d4257600080fd5b60008060008060008060808789031215611dbf57600080fd5b611dc887611d30565b955060208701356001600160401b0380821115611de457600080fd5b611df08a838b01611d47565b9097509550859150611e0460408a01611d8f565b94506060890135915080821115611e1a57600080fd5b50611e2789828a01611d47565b979a9699509497509295939492505050565b600060208284031215611e4b57600080fd5b610f0e82611d30565b60008060408385031215611e6757600080fd5b611e7083611d30565b946020939093013593505050565b600080600080600060608688031215611e9657600080fd5b85358015158114611ea657600080fd5b945060208601356001600160401b0380821115611ec257600080fd5b611ece89838a01611d47565b90965094506040880135915080821115611ee757600080fd5b50611ef488828901611d47565b969995985093965092949392505050565b600080600060408486031215611f1a57600080fd5b611f2384611d30565b925060208401356001600160401b03811115611f3e57600080fd5b611f4a86828701611d47565b9497909650939450505050565b634e487b7160e01b600052604160045260246000fd5b604051601f8201601f191681016001600160401b0381118282101715611f9557611f95611f57565b604052919050565b60006001600160401b03821115611fb657611fb6611f57565b50601f01601f191660200190565b600080600060608486031215611fd957600080fd5b611fe284611d30565b925060208401356001600160401b03811115611ffd57600080fd5b8401601f8101861361200e57600080fd5b803561202161201c82611f9d565b611f6d565b81815287602083850101111561203657600080fd5b8160208401602083013760006020838301015280945050505061205b60408501611d8f565b90509250925092565b80356001600160a01b0381168114611d4257600080fd5b60006020828403121561208d57600080fd5b610f0e82612064565b60005b838110156120b1578181015183820152602001612099565b50506000910152565b600081518084526120d2816020860160208601612096565b601f01601f19169290920160200192915050565b602081526000610f0e60208301846120ba565b6000806040838503121561210c57600080fd5b61211583611d30565b915061212360208401611d30565b90509250929050565b60008060008060006080868803121561214457600080fd5b61214d86611d30565b945061215b60208701611d30565b93506040860135925060608601356001600160401b0381111561217d57600080fd5b611ef488828901611d47565b60008060006060848603121561219e57600080fd5b6121a784611d30565b92506121b560208501611d30565b9150604084013590509250925092565b6000806000806101608086880312156121dd57600080fd5b6121e686612064565b9450602086013593506040860135925086818701111561220557600080fd5b509295919450926060019150565b6000806000806080858703121561222957600080fd5b61223285611d30565b935061224060208601611d30565b925061224e60408601612064565b9396929550929360600135925050565b600181811c9082168061227257607f821691505b60208210810361229257634e487b7160e01b600052602260045260246000fd5b50919050565b8183823760009101908152919050565b81835281816020850137506000828201602090810191909152601f909101601f19169091010190565b61ffff881681526001600160a01b038716602082015260a06040820181905260009061230090830187896122a8565b8515156060840152828103608084015261231b8185876122a8565b9a9950505050505050505050565b6000806040838503121561233c57600080fd5b505080516020909101519092909150565b61ffff841681526040602082015260006116ab6040830184866122a8565b60208152600082516080602084015261238760a08401826120ba565b905060018060a01b03602085015116604084015260ff60408501511660608401526001600160401b0360608501511660808401528091505092915050565b61ffff841681526001600160a01b03831660208201526060604082018190526000906116ab908301846120ba565b634e487b7160e01b600052601160045260246000fd5b8181038181111561241c5761241c6123f3565b92915050565b600061ffff8088168352808716602084015250846040830152608060608301526124506080830184866122a8565b979650505050505050565b61ffff861681526080602082015260006124796080830186886122a8565b6001600160401b0394909416604083015250606001529392505050565b60006101a08201905087825260ff871660208301528560408301528460608301528360808301526101008360a0840137979650505050505050565b6000602082840312156124e357600080fd5b81516001600160401b038111156124f957600080fd5b8201601f8101841361250a57600080fd5b805161251861201c82611f9d565b81815285602083850101111561252d57600080fd5b6116ab826020830160208601612096565b60008251612550818460208701612096565b9190910192915050565b61ffff8516815260806020820152600061257760808301866120ba565b6001600160401b0385166040840152828103606084015261245081856120ba565b61ffff8716815260c0602082015260006125b560c08301886120ba565b82810360408401526125c781886120ba565b6001600160a01b0387811660608601528616608085015283810360a085015290506125f281856120ba565b9998505050505050505050565b60008351612611818460208801612096565b60609390931b6bffffffffffffffffffffffff19169190920190815260140192915050565b601f821115611d2b57600081815260208120601f850160051c8101602086101561265d5750805b601f850160051c820191505b81811015610cb257828155600101612669565b81516001600160401b0381111561269557612695611f57565b6126a9816126a3845461225e565b84612636565b602080601f8311600181146126de57600084156126c65750858301515b600019600386901b1c1916600185901b178555610cb2565b600085815260208120601f198616915b8281101561270d578886015182559484019460019091019084016126ee565b508582101561272b5787850151600019600388901b60f8161c191681555b5050505050600190811b01905550565b61ffff8316815260406020820152600061275860408301846120ba565b949350505050565b8082018082111561241c5761241c6123f3565b61ffff8616815260a06020820152600061279060a08301876120ba565b6001600160401b038616604084015282810360608401526127b181866120ba565b905082810360808401526127c581856120ba565b9897505050505050505056fea2646970667358221220a44b0be0e68f8f99fa7b7fa348ec3aeeaae1779ccfa718b40ba1e0eaa9e7d6ee64736f6c63430008110033",
  "linkReferences": {},
  "deployedLinkReferences": {}
}