{
  "_format": "hh-sol-artifact-1",
  "contractName": "OPOVPoPVerifier",
  "sourceName": "contracts/OPOVPoPVerifier.sol",
  "abi": [
    {
      "inputs": [
        {
          "internalType": "contract IWorldID",
          "name": "_worldId",
          "type": "address"
        },
        {
          "internalType": "string",
          "name": "_appId",
          "type": "string"
        },
        {
          "internalType": "string",
          "name": "_actionId",
          "type": "string"
        }
      ],
      "stateMutability": "nonpayable",
      "type": "constructor"
    },
    {
      "inputs": [],
      "name": "InvalidNullifier",
      "type": "error"
    },
    {
      "anonymous": false,
      "inputs": [
        {
          "indexed": false,
          "internalType": "bytes32",
          "name": "uid",
          "type": "bytes32"
        }
      ],
      "name": "AttestationCreated",
      "type": "event"
    },
    {
      "anonymous": false,
      "inputs": [
        {
          "indexed": true,
          "internalType": "address",
          "name": "attester",
          "type": "address"
        }
      ],
      "name": "AttesterSet",
      "type": "event"
    },
    {
      "anonymous": false,
      "inputs": [],
      "name": "ContractDeployed",
      "type": "event"
    },
    {
      "anonymous": false,
      "inputs": [
        {
          "indexed": true,
          "internalType": "address",
          "name": "previousOwner",
          "type": "address"
        },
        {
          "indexed": true,
          "internalType": "address",
          "name": "newOwner",
          "type": "address"
        }
      ],
      "name": "OwnershipTransferred",
      "type": "event"
    },
    {
      "anonymous": false,
      "inputs": [
        {
          "indexed": true,
          "internalType": "address",
          "name": "user",
          "type": "address"
        }
      ],
      "name": "VerificationSuccessful",
      "type": "event"
    },
    {
      "inputs": [],
      "name": "owner",
      "outputs": [
        {
          "internalType": "address",
          "name": "",
          "type": "address"
        }
      ],
      "stateMutability": "view",
      "type": "function"
    },
    {
      "inputs": [],
      "name": "renounceOwnership",
      "outputs": [],
      "stateMutability": "nonpayable",
      "type": "function"
    },
    {
      "inputs": [
        {
          "internalType": "contract IAttester",
          "name": "_attester",
          "type": "address"
        }
      ],
      "name": "setAttester",
      "outputs": [],
      "stateMutability": "nonpayable",
      "type": "function"
    },
    {
      "inputs": [
        {
          "internalType": "address",
          "name": "newOwner",
          "type": "address"
        }
      ],
      "name": "transferOwnership",
      "outputs": [],
      "stateMutability": "nonpayable",
      "type": "function"
    },
    {
      "inputs": [
        {
          "internalType": "uint256",
          "name": "_root",
          "type": "uint256"
        },
        {
          "internalType": "uint256",
          "name": "_nullifierHash",
          "type": "uint256"
        },
        {
          "internalType": "uint256[8]",
          "name": "_proof",
          "type": "uint256[8]"
        }
      ],
      "name": "verify",
      "outputs": [
        {
          "internalType": "bytes32",
          "name": "",
          "type": "bytes32"
        }
      ],
      "stateMutability": "nonpayable",
      "type": "function"
    }
  ],
  "bytecode": "0x60e06040523480156200001157600080fd5b5060405162000aee38038062000aee833981016040819052620000349162000264565b6200003f3362000110565b600180556001600160a01b038316608052604051620000a1906200008d906200006d908590602001620002ee565b6040516020818303038152906040526200016060201b6200049d1760201c565b826040516020016200006d9291906200030c565b60a052600080805260026020527fac33ff75c19e70fe83507db0d683fd3465c996598dc972688b7ace676c89077b805460ff1916600190811790915560c0526040517fdaf2a119a79dac8445fdc10627116c03f4b0ffb5cf1aee5223ac18a7453e631f9190a150505062000334565b600080546001600160a01b038381166001600160a01b0319831681178455604051919092169283917f8be0079c531659141344cd1fd0a4f28419497f9722a3daafe3b4186f6b6457e09190a35050565b6000600882604051602001620001779190620002ee565b60408051601f198184030181529190528051602090910120901c92915050565b634e487b7160e01b600052604160045260246000fd5b60005b83811015620001ca578181015183820152602001620001b0565b50506000910152565b600082601f830112620001e557600080fd5b81516001600160401b038082111562000202576200020262000197565b604051601f8301601f19908116603f011681019082821181831017156200022d576200022d62000197565b816040528381528660208588010111156200024757600080fd5b6200025a846020830160208901620001ad565b9695505050505050565b6000806000606084860312156200027a57600080fd5b83516001600160a01b03811681146200029257600080fd5b60208501519093506001600160401b0380821115620002b057600080fd5b620002be87838801620001d3565b93506040860151915080821115620002d557600080fd5b50620002e486828701620001d3565b9150509250925092565b6000825162000302818460208701620001ad565b9190910192915050565b8281526000825162000326816020850160208701620001ad565b919091016020019392505050565b60805160a05160c0516107836200036b600039600081816101a701526102c3015260006101e50152600061017c01526107836000f3fe608060405234801561001057600080fd5b50600436106100575760003560e01c8063412724b31461005c578063715018a6146100825780638da5cb5b1461008c5780639daf85ab146100a7578063f2fde38b146100ba575b600080fd5b61006f61006a3660046105d5565b6100cd565b6040519081526020015b60405180910390f35b61008a6103be565b005b6000546040516001600160a01b039091168152602001610079565b61008a6100b5366004610629565b6103d2565b61008a6100c8366004610629565b610424565b60006100d76104d2565b6003546001600160a01b03166101275760405162461bcd60e51b815260206004820152601060248201526f105d1d195cdd195c881b9bdd081cd95d60821b60448201526064015b60405180910390fd5b60008381526002602052604090205460ff161561015757604051632ec8265960e11b815260040160405180910390fd5b6040516bffffffffffffffffffffffff193360601b1660208201526001600160a01b037f00000000000000000000000000000000000000000000000000000000000000001690633bc778e39086907f0000000000000000000000000000000000000000000000000000000000000000906101e29060340160405160208183030381529060405261049d565b877f0000000000000000000000000000000000000000000000000000000000000000886040518763ffffffff1660e01b815260040161022696959493929190610646565b60006040518083038186803b15801561023e57600080fd5b505afa158015610252573d6000803e3d6000fd5b505050600084815260026020526040808220805460ff19166001179055513392507fdcae470f5d7900ad0f27f39e8454d4ee863e57e7a9693c91ceb401700726aeb39190a26040805160c0810182526006608082019081526576657269667960d01b60a083015281523360208201527f000000000000000000000000000000000000000000000000000000000000000060ff16818301524267ffffffffffffffff16606082015260035491516336370ff160e01b815290916000916001600160a01b03909116906336370ff19061032d9085906004016106a5565b6020604051808303816000875af115801561034c573d6000803e3d6000fd5b505050506040513d601f19601f820116820180604052508101906103709190610718565b90507fd290030f2b5b0ab9eb720eed81dc8820048476d821ce63d43c39adae452b91ba816040516103a391815260200190565b60405180910390a19150506103b760018055565b9392505050565b6103c661052b565b6103d06000610585565b565b6103da61052b565b600380546001600160a01b0319166001600160a01b0383169081179091556040517f83ae38addfd65fe603eac2c4ea32b98b87684da75955ba744065b0ffd6ed672490600090a250565b61042c61052b565b6001600160a01b0381166104915760405162461bcd60e51b815260206004820152602660248201527f4f776e61626c653a206e6577206f776e657220697320746865207a65726f206160448201526564647265737360d01b606482015260840161011e565b61049a81610585565b50565b60006008826040516020016104b29190610731565b60408051601f198184030181529190528051602090910120901c92915050565b6002600154036105245760405162461bcd60e51b815260206004820152601f60248201527f5265656e7472616e637947756172643a207265656e7472616e742063616c6c00604482015260640161011e565b6002600155565b6000546001600160a01b031633146103d05760405162461bcd60e51b815260206004820181905260248201527f4f776e61626c653a2063616c6c6572206973206e6f7420746865206f776e6572604482015260640161011e565b600080546001600160a01b038381166001600160a01b0319831681178455604051919092169283917f8be0079c531659141344cd1fd0a4f28419497f9722a3daafe3b4186f6b6457e09190a35050565b60008060006101408085870312156105ec57600080fd5b843593506020850135925085818601111561060657600080fd5b506040840190509250925092565b6001600160a01b038116811461049a57600080fd5b60006020828403121561063b57600080fd5b81356103b781610614565b60006101a08201905087825260ff871660208301528560408301528460608301528360808301526101008360a0840137979650505050505050565b60005b8381101561069c578181015183820152602001610684565b50506000910152565b60208152600082516080602084015280518060a08501526106cd8160c0860160208501610681565b60208501516001600160a01b031660408581019190915285015160ff166060808601919091529094015167ffffffffffffffff166080840152505060c0601f909201601f1916010190565b60006020828403121561072a57600080fd5b5051919050565b60008251610743818460208701610681565b919091019291505056fea264697066735822122041215bc1aac4a942a7fdc1a8a5091d0fcfd693a20fb376ee22cbc2793f0f612a64736f6c63430008110033",
  "linkReferences": {},
  "deployedLinkReferences": {}
}